{
  "contractName": "MyBounty",
  "abi": [
    {
      "constant": true,
      "inputs": [],
      "name": "bountyCount",
      "outputs": [
        {
          "name": "",
          "type": "uint256"
        }
      ],
      "payable": false,
      "stateMutability": "view",
      "type": "function"
    },
    {
      "constant": true,
      "inputs": [
        {
          "name": "",
          "type": "uint256"
        }
      ],
      "name": "BountyList",
      "outputs": [
        {
          "name": "bountyPoster",
          "type": "address"
        },
        {
          "name": "title",
          "type": "string"
        },
        {
          "name": "description",
          "type": "string"
        },
        {
          "name": "amount",
          "type": "uint256"
        },
        {
          "name": "state",
          "type": "uint8"
        },
        {
          "name": "submissionCount",
          "type": "uint256"
        }
      ],
      "payable": false,
      "stateMutability": "view",
      "type": "function"
    },
    {
      "inputs": [],
      "payable": false,
      "stateMutability": "nonpayable",
      "type": "constructor"
    },
    {
      "payable": true,
      "stateMutability": "payable",
      "type": "fallback"
    },
    {
      "anonymous": false,
      "inputs": [
        {
          "indexed": false,
          "name": "bountyId",
          "type": "uint256"
        },
        {
          "indexed": false,
          "name": "bountyPoster",
          "type": "address"
        },
        {
          "indexed": false,
          "name": "title",
          "type": "string"
        },
        {
          "indexed": false,
          "name": "description",
          "type": "string"
        },
        {
          "indexed": false,
          "name": "amount",
          "type": "uint256"
        },
        {
          "indexed": false,
          "name": "state",
          "type": "uint8"
        },
        {
          "indexed": false,
          "name": "submissionCount",
          "type": "uint256"
        }
      ],
      "name": "CreateBounty",
      "type": "event"
    },
    {
      "anonymous": false,
      "inputs": [
        {
          "indexed": false,
          "name": "bountyId",
          "type": "uint256"
        },
        {
          "indexed": false,
          "name": "submissionId",
          "type": "uint256"
        },
        {
          "indexed": false,
          "name": "hunter",
          "type": "address"
        },
        {
          "indexed": false,
          "name": "body",
          "type": "string"
        },
        {
          "indexed": false,
          "name": "status",
          "type": "uint8"
        }
      ],
      "name": "CreateSubmission",
      "type": "event"
    },
    {
      "anonymous": false,
      "inputs": [
        {
          "indexed": false,
          "name": "bountyId",
          "type": "uint256"
        },
        {
          "indexed": false,
          "name": "submissionId",
          "type": "uint256"
        }
      ],
      "name": "AcceptSubmission",
      "type": "event"
    },
    {
      "anonymous": false,
      "inputs": [
        {
          "indexed": false,
          "name": "bountyId",
          "type": "uint256"
        },
        {
          "indexed": false,
          "name": "submissionId",
          "type": "uint256"
        }
      ],
      "name": "RejectSubmission",
      "type": "event"
    },
    {
      "anonymous": false,
      "inputs": [
        {
          "indexed": false,
          "name": "bountyId",
          "type": "uint256"
        }
      ],
      "name": "FetchBounty",
      "type": "event"
    },
    {
      "anonymous": false,
      "inputs": [
        {
          "indexed": false,
          "name": "bountyId",
          "type": "uint256"
        },
        {
          "indexed": false,
          "name": "submissionId",
          "type": "uint256"
        }
      ],
      "name": "FetchSubmission",
      "type": "event"
    },
    {
      "anonymous": false,
      "inputs": [
        {
          "indexed": false,
          "name": "isStopped",
          "type": "bool"
        }
      ],
      "name": "StopContract",
      "type": "event"
    },
    {
      "anonymous": false,
      "inputs": [
        {
          "indexed": false,
          "name": "isStopped",
          "type": "bool"
        }
      ],
      "name": "ResumeContract",
      "type": "event"
    },
    {
      "constant": false,
      "inputs": [
        {
          "name": "_title",
          "type": "string"
        },
        {
          "name": "_description",
          "type": "string"
        },
        {
          "name": "_bountyAmount",
          "type": "uint256"
        }
      ],
      "name": "createBounty",
      "outputs": [
        {
          "name": "",
          "type": "bool"
        }
      ],
      "payable": true,
      "stateMutability": "payable",
      "type": "function"
    },
    {
      "constant": false,
      "inputs": [
        {
          "name": "_bountyId",
          "type": "uint256"
        },
        {
          "name": "_body",
          "type": "string"
        }
      ],
      "name": "createSubmission",
      "outputs": [
        {
          "name": "",
          "type": "bool"
        }
      ],
      "payable": false,
      "stateMutability": "nonpayable",
      "type": "function"
    },
    {
      "constant": true,
      "inputs": [
        {
          "name": "_bountyId",
          "type": "uint256"
        }
      ],
      "name": "fetchBounty",
      "outputs": [
        {
          "name": "bountyPoster",
          "type": "address"
        },
        {
          "name": "title",
          "type": "string"
        },
        {
          "name": "description",
          "type": "string"
        },
        {
          "name": "amount",
          "type": "uint256"
        },
        {
          "name": "state",
          "type": "uint8"
        },
        {
          "name": "submissionCount",
          "type": "uint256"
        }
      ],
      "payable": false,
      "stateMutability": "view",
      "type": "function"
    },
    {
      "constant": true,
      "inputs": [
        {
          "name": "_bountyId",
          "type": "uint256"
        },
        {
          "name": "_submissionId",
          "type": "uint256"
        }
      ],
      "name": "fetchSubmission",
      "outputs": [
        {
          "name": "bountyId",
          "type": "uint256"
        },
        {
          "name": "submissionId",
          "type": "uint256"
        },
        {
          "name": "hunter",
          "type": "address"
        },
        {
          "name": "body",
          "type": "string"
        },
        {
          "name": "status",
          "type": "uint8"
        }
      ],
      "payable": false,
      "stateMutability": "view",
      "type": "function"
    },
    {
      "constant": false,
      "inputs": [
        {
          "name": "_bountyId",
          "type": "uint256"
        },
        {
          "name": "_submissionId",
          "type": "uint256"
        }
      ],
      "name": "acceptSubmission",
      "outputs": [
        {
          "name": "",
          "type": "bool"
        }
      ],
      "payable": true,
      "stateMutability": "payable",
      "type": "function"
    },
    {
      "constant": false,
      "inputs": [
        {
          "name": "_bountyId",
          "type": "uint256"
        },
        {
          "name": "_submissionId",
          "type": "uint256"
        }
      ],
      "name": "rejectSubmission",
      "outputs": [
        {
          "name": "",
          "type": "bool"
        }
      ],
      "payable": false,
      "stateMutability": "nonpayable",
      "type": "function"
    },
    {
      "constant": false,
      "inputs": [],
      "name": "stopContract",
      "outputs": [
        {
          "name": "",
          "type": "bool"
        }
      ],
      "payable": false,
      "stateMutability": "nonpayable",
      "type": "function"
    },
    {
      "constant": true,
      "inputs": [],
      "name": "checkStopContract",
      "outputs": [
        {
          "name": "",
          "type": "bool"
        }
      ],
      "payable": false,
      "stateMutability": "view",
      "type": "function"
    },
    {
      "constant": false,
      "inputs": [],
      "name": "resumeContract",
      "outputs": [
        {
          "name": "",
          "type": "bool"
        }
      ],
      "payable": false,
      "stateMutability": "nonpayable",
      "type": "function"
    }
  ],
  "bytecode": "0x608060405260008060146101000a81548160ff02191690831515021790555034801561002a57600080fd5b50336000806101000a81548173ffffffffffffffffffffffffffffffffffffffff021916908373ffffffffffffffffffffffffffffffffffffffff160217905550611a0f8061007a6000396000f3006080604052600436106100af576000357c0100000000000000000000000000000000000000000000000000000000900463ffffffff16806312253a6c146100b1578063172b14a4146100e05780632bfa7d60146101e65780633e362c96146102aa57806377ca8117146102d5578063a5e99c4e1461043d578063a7423668146104c8578063b1804ffb14610630578063b8a770c414610672578063c4bc5da5146106a1578063d866164d146106d0575b005b3480156100bd57600080fd5b506100c661071f565b604051808215151515815260200191505060405180910390f35b3480156100ec57600080fd5b5061011560048036038101908080359060200190929190803590602001909291905050506107f6565b604051808681526020018581526020018473ffffffffffffffffffffffffffffffffffffffff1673ffffffffffffffffffffffffffffffffffffffff1681526020018060200183600281111561016757fe5b60ff168152602001828103825284818151815260200191508051906020019080838360005b838110156101a757808201518184015260208101905061018c565b50505050905090810190601f1680156101d45780820380516001836020036101000a031916815260200191505b50965050505050505060405180910390f35b610290600480360381019080803590602001908201803590602001908080601f0160208091040260200160405190810160405280939291908181526020018383808284378201915050505050509192919290803590602001908201803590602001908080601f0160208091040260200160405190810160405280939291908181526020018383808284378201915050505050509192919290803590602001909291905050506109b6565b604051808215151515815260200191505060405180910390f35b3480156102b657600080fd5b506102bf610c92565b6040518082815260200191505060405180910390f35b3480156102e157600080fd5b5061030060048036038101908080359060200190929190505050610c98565b604051808773ffffffffffffffffffffffffffffffffffffffff1673ffffffffffffffffffffffffffffffffffffffff168152602001806020018060200186815260200185600181111561035057fe5b60ff168152602001848152602001838103835288818151815260200191508051906020019080838360005b8381101561039657808201518184015260208101905061037b565b50505050905090810190601f1680156103c35780820380516001836020036101000a031916815260200191505b50838103825287818151815260200191508051906020019080838360005b838110156103fc5780820151818401526020810190506103e1565b50505050905090810190601f1680156104295780820380516001836020036101000a031916815260200191505b509850505050505050505060405180910390f35b34801561044957600080fd5b506104ae60048036038101908080359060200190929190803590602001908201803590602001908080601f0160208091040260200160405190810160405280939291908181526020018383808284378201915050505050509192919290505050610ed3565b604051808215151515815260200191505060405180910390f35b3480156104d457600080fd5b506104f3600480360381019080803590602001909291905050506111c8565b604051808773ffffffffffffffffffffffffffffffffffffffff1673ffffffffffffffffffffffffffffffffffffffff168152602001806020018060200186815260200185600181111561054357fe5b60ff168152602001848152602001838103835288818151815260200191508051906020019080838360005b8381101561058957808201518184015260208101905061056e565b50505050905090810190601f1680156105b65780820380516001836020036101000a031916815260200191505b50838103825287818151815260200191508051906020019080838360005b838110156105ef5780820151818401526020810190506105d4565b50505050905090810190601f16801561061c5780820380516001836020036101000a031916815260200191505b509850505050505050505060405180910390f35b6106586004803603810190808035906020019092919080359060200190929190505050611361565b604051808215151515815260200191505060405180910390f35b34801561067e57600080fd5b506106876115ec565b604051808215151515815260200191505060405180910390f35b3480156106ad57600080fd5b506106b661165e565b604051808215151515815260200191505060405180910390f35b3480156106dc57600080fd5b506107056004803603810190808035906020019092919080359060200190929190505050611734565b604051808215151515815260200191505060405180910390f35b60008060009054906101000a900473ffffffffffffffffffffffffffffffffffffffff1673ffffffffffffffffffffffffffffffffffffffff163373ffffffffffffffffffffffffffffffffffffffff1614151561077c57600080fd5b6001600060146101000a81548160ff0219169083151502179055507f35f675a4c6bf32e0d740299b1a4f0557e90818c42dc71105230bdb6d033528df600060149054906101000a900460ff16604051808215151515815260200191505060405180910390a1600060149054906101000a900460ff16905090565b60008060006060600086600154811115151561081157600080fd5b87876002600083815260200190815260200160002060050154821115151561083857600080fd5b600060149054906101000a900460ff1615151561085457600080fd5b8989600260008d815260200190815260200160002060060160008c815260200190815260200160002060000160009054906101000a900473ffffffffffffffffffffffffffffffffffffffff16600260008e815260200190815260200160002060060160008d8152602001908152602001600020600101600260008f815260200190815260200160002060060160008e815260200190815260200160002060020160009054906101000a900460ff16818054600181600116156101000203166002900480601f0160208091040260200160405190810160405280929190818152602001828054600181600116156101000203166002900480156109985780601f1061096d57610100808354040283529160200191610998565b820191906000526020600020905b81548152906001019060200180831161097b57829003601f168201915b50505050509150975097509750975097505050509295509295909350565b60006109c06118a3565b600060149054906101000a900460ff161515156109dc57600080fd5b60016000815480929190600101919050555060c0604051908101604052803373ffffffffffffffffffffffffffffffffffffffff16815260200186815260200185815260200184815260200160006001811115610a3557fe5b8152602001600081525090508060026000600154815260200190815260200160002060008201518160000160006101000a81548173ffffffffffffffffffffffffffffffffffffffff021916908373ffffffffffffffffffffffffffffffffffffffff1602179055506020820151816001019080519060200190610aba9291906118fb565b506040820151816002019080519060200190610ad79291906118fb565b506060820151816003015560808201518160040160006101000a81548160ff02191690836001811115610b0657fe5b021790555060a082015181600501559050507f9417a56f1a7c2b5316ba15b488545cc26266647390dc387151545bcfed45aa1c60015433878787600080604051808881526020018773ffffffffffffffffffffffffffffffffffffffff1673ffffffffffffffffffffffffffffffffffffffff1681526020018060200180602001868152602001856001811115610b9957fe5b60ff168152602001848152602001838103835288818151815260200191508051906020019080838360005b83811015610bdf578082015181840152602081019050610bc4565b50505050905090810190601f168015610c0c5780820380516001836020036101000a031916815260200191505b50838103825287818151815260200191508051906020019080838360005b83811015610c45578082015181840152602081019050610c2a565b50505050905090810190601f168015610c725780820380516001836020036101000a031916815260200191505b50995050505050505050505060405180910390a160019150509392505050565b60015481565b60006060806000806000866001548111151515610cb457600080fd5b600060149054906101000a900460ff16151515610cd057600080fd5b6002600089815260200190815260200160002060000160009054906101000a900473ffffffffffffffffffffffffffffffffffffffff16600260008a8152602001908152602001600020600101600260008b8152602001908152602001600020600201600260008c815260200190815260200160002060030154600260008d815260200190815260200160002060040160009054906101000a900460ff16600260008e815260200190815260200160002060050154848054600181600116156101000203166002900480601f016020809104026020016040519081016040528092919081815260200182805460018160011615610100020316600290048015610e1a5780601f10610def57610100808354040283529160200191610e1a565b820191906000526020600020905b815481529060010190602001808311610dfd57829003601f168201915b50505050509450838054600181600116156101000203166002900480601f016020809104026020016040519081016040528092919081815260200182805460018160011615610100020316600290048015610eb65780601f10610e8b57610100808354040283529160200191610eb6565b820191906000526020600020905b815481529060010190602001808311610e9957829003601f168201915b505050505093509650965096509650965096505091939550919395565b6000610edd61197b565b836001548111151515610eef57600080fd5b600060149054906101000a900460ff16151515610f0b57600080fd5b6002600086815260200190815260200160002060000160009054906101000a900473ffffffffffffffffffffffffffffffffffffffff1673ffffffffffffffffffffffffffffffffffffffff163373ffffffffffffffffffffffffffffffffffffffff1614151515610f7c57600080fd5b60026000868152602001908152602001600020600501600081548092919060010191905055506060604051908101604052803373ffffffffffffffffffffffffffffffffffffffff168152602001858152602001600280811115610fdc57fe5b8152509150816002600087815260200190815260200160002060060160006002600089815260200190815260200160002060050154815260200190815260200160002060008201518160000160006101000a81548173ffffffffffffffffffffffffffffffffffffffff021916908373ffffffffffffffffffffffffffffffffffffffff16021790555060208201518160010190805190602001906110829291906118fb565b5060408201518160020160006101000a81548160ff021916908360028111156110a757fe5b02179055509050507fd01e6e2c18060d3a9fb9c2975efe5fcd4b4c5f49f385aed74cd3b81be5ae09b185600260008881526020019081526020016000206005015433876002604051808681526020018581526020018473ffffffffffffffffffffffffffffffffffffffff1673ffffffffffffffffffffffffffffffffffffffff1681526020018060200183600281111561113e57fe5b60ff168152602001828103825284818151815260200191508051906020019080838360005b8381101561117e578082015181840152602081019050611163565b50505050905090810190601f1680156111ab5780820380516001836020036101000a031916815260200191505b50965050505050505060405180910390a160019250505092915050565b60026020528060005260406000206000915090508060000160009054906101000a900473ffffffffffffffffffffffffffffffffffffffff1690806001018054600181600116156101000203166002900480601f01602080910402602001604051908101604052809291908181526020018280546001816001161561010002031660029004801561129a5780601f1061126f5761010080835404028352916020019161129a565b820191906000526020600020905b81548152906001019060200180831161127d57829003601f168201915b505050505090806002018054600181600116156101000203166002900480601f0160208091040260200160405190810160405280929190818152602001828054600181600116156101000203166002900480156113385780601f1061130d57610100808354040283529160200191611338565b820191906000526020600020905b81548152906001019060200180831161131b57829003601f168201915b5050505050908060030154908060040160009054906101000a900460ff16908060050154905086565b6000826000600181111561137157fe5b6002600083815260200190815260200160002060040160009054906101000a900460ff1660018111156113a057fe5b1415156113ac57600080fd5b8360026000828152602001908152602001600020600301543373ffffffffffffffffffffffffffffffffffffffff16311115156113e857600080fd5b846002600082815260200190815260200160002060000160009054906101000a900473ffffffffffffffffffffffffffffffffffffffff1673ffffffffffffffffffffffffffffffffffffffff163373ffffffffffffffffffffffffffffffffffffffff1614151561145957600080fd5b600060149054906101000a900460ff1615151561147557600080fd5b600060026000888152602001908152602001600020600601600087815260200190815260200160002060020160006101000a81548160ff021916908360028111156114bc57fe5b021790555060016002600088815260200190815260200160002060040160006101000a81548160ff021916908360018111156114f457fe5b021790555060026000878152602001908152602001600020600601600086815260200190815260200160002060000160009054906101000a900473ffffffffffffffffffffffffffffffffffffffff1673ffffffffffffffffffffffffffffffffffffffff166108fc60026000898152602001908152602001600020600301549081150290604051600060405180830381858888f1935050505015801561159f573d6000803e3d6000fd5b507fb50a2fef1593d2f881feee288ebce03096bc1cb73e4921deef17e1939cce307f8686604051808381526020018281526020019250505060405180910390a16001935050505092915050565b60008060009054906101000a900473ffffffffffffffffffffffffffffffffffffffff1673ffffffffffffffffffffffffffffffffffffffff163373ffffffffffffffffffffffffffffffffffffffff1614151561164957600080fd5b600060149054906101000a900460ff16905090565b60008060009054906101000a900473ffffffffffffffffffffffffffffffffffffffff1673ffffffffffffffffffffffffffffffffffffffff163373ffffffffffffffffffffffffffffffffffffffff161415156116bb57600080fd5b60008060146101000a81548160ff0219169083151502179055507fe885f3cd446f5fcfb4b346db7dcd82e9a74bf1fee69dd8bdf9b232fb666f81df600060149054906101000a900460ff16604051808215151515815260200191505060405180910390a1600060149054906101000a900460ff16905090565b6000826002600082815260200190815260200160002060000160009054906101000a900473ffffffffffffffffffffffffffffffffffffffff1673ffffffffffffffffffffffffffffffffffffffff163373ffffffffffffffffffffffffffffffffffffffff161415156117a757600080fd5b83600060018111156117b557fe5b6002600083815260200190815260200160002060040160009054906101000a900460ff1660018111156117e457fe5b1415156117f057600080fd5b600060149054906101000a900460ff1615151561180c57600080fd5b600160026000878152602001908152602001600020600601600086815260200190815260200160002060020160006101000a81548160ff0219169083600281111561185357fe5b02179055507f0bc2798f955e2a605cb8e256ef2eab76cff9ff6a8b6676733f7bc55562c848558585604051808381526020018281526020019250505060405180910390a160019250505092915050565b60c060405190810160405280600073ffffffffffffffffffffffffffffffffffffffff168152602001606081526020016060815260200160008152602001600060018111156118ee57fe5b8152602001600081525090565b828054600181600116156101000203166002900490600052602060002090601f016020900481019282601f1061193c57805160ff191683800117855561196a565b8280016001018555821561196a579182015b8281111561196957825182559160200191906001019061194e565b5b50905061197791906119be565b5090565b606060405190810160405280600073ffffffffffffffffffffffffffffffffffffffff16815260200160608152602001600060028111156119b857fe5b81525090565b6119e091905b808211156119dc5760008160009055506001016119c4565b5090565b905600a165627a7a72305820d559e0ca3a6130737583a4626845b78e4f517efeddcf4208b680883e78fdcbe20029",
  "source": "pragma solidity ^0.4.24;\r\nimport './SafeMath.sol';\r\n\r\n/** @title MyBounty dApp */\r\ncontract MyBounty {                                             // Declaration of MyBounty contract\r\n\r\n    constructor() public {\r\n        owner = msg.sender;                                     // Sets the owner of contract on initial deployment\r\n    }\r\n\r\n    using SafeMath for uint256;                                 // SafeMath library prevents overflow when working with uint                     \r\n    address owner;                                              // Specifies the owner address of the contract\r\n    bool isStopped = false;                                     // Determins contracts emergency stopped state (circuit breaker)\r\n    uint public bountyCount;                                    // Acs as index/key of struct mappings\r\n    enum SubmissionStatus {Accepted, Rejected, PendingReview}   // Current status of a HunterSubmission.\r\n    enum BountyState {Open, Closed}                             // Current state of a BountyItem.\r\n\r\n    struct HunterSubmission {                                   // Declaration of HunterSubmission struct type\r\n        address hunter;                                         // Address of a Bounty Hunter.\r\n        string body;                                            // Solution body of text.\r\n        SubmissionStatus status;                                // Current status of a HunterSubmission.\r\n    }\r\n\r\n    struct BountyItem {                                         // Declaration of BountyList struct type\r\n        address bountyPoster;                                   // Address of a Bounty Poster.\r\n        string title;                                           // Title of a BountyItem.\r\n        string description;                                     // Description of a BountyItem.\r\n        uint amount;                                            // Reward Amount for submitting an accepted HunterSubmission. \r\n        BountyState state;                                      // Current state of a BountyItem.\r\n        uint submissionCount;                                   // Acts as index/key for A BountyItem.\r\n        mapping (uint => HunterSubmission) submissions;         // Struct mapping which contains each HunterSubmission \r\n    }                                                           //      for a particular Bountyitem.\r\n\r\n    mapping(uint => BountyItem) public BountyList;              // Declaration of BountyList storage. \r\n\r\n    event CreateBounty (\r\n        uint bountyId, \r\n        address bountyPoster, \r\n        string title, \r\n        string description, \r\n        uint amount, \r\n        BountyState state, \r\n        uint submissionCount\r\n    );\r\n\r\n    event CreateSubmission (\r\n        uint bountyId, \r\n        uint submissionId, \r\n        address hunter, \r\n        string body, \r\n        SubmissionStatus status\r\n    );\r\n\r\n    event AcceptSubmission (uint bountyId, uint submissionId);\r\n    event RejectSubmission (uint bountyId, uint submissionId);\r\n    event FetchBounty (uint bountyId);\r\n    event FetchSubmission (uint bountyId, uint submissionId);\r\n    event StopContract (bool isStopped);\r\n    event ResumeContract (bool isStopped);\r\n    \r\n    modifier verifyBountyOwner (uint _bountyId) { \r\n        require (msg.sender == BountyList[_bountyId].bountyPoster); _; \r\n    }\r\n    \r\n    modifier verifyState (uint _bountyId) { \r\n        require (BountyList[_bountyId].state == BountyState.Open); _; \r\n    }\r\n\r\n    modifier verifyBalance (uint _bountyId) { \r\n        require (msg.sender.balance > BountyList[_bountyId].amount); _; \r\n    }\r\n\r\n    modifier verifyBountyExists (uint _bountyId) { \r\n        require (_bountyId <= bountyCount); _; \r\n    }\r\n\r\n    modifier verifySubmissionExists (uint _bountyId, uint submissionId) { \r\n        require(_bountyId <= BountyList[_bountyId].submissionCount); _; \r\n    }\r\n    \r\n    modifier stoppedInEmergency {\r\n        require(!isStopped); _;\r\n    }\r\n\r\n    // Check for authorization. msg.sender must be owner\r\n    modifier onlyAuthorized {\r\n        require (msg.sender == owner); _;\r\n    }\r\n\r\n    /** @dev                        Creates a new BountyItem to which users can submit HunterSubmission solutions.\r\n    *   @param _title               Title of a new BountyItem.\r\n    *   @param _description         Description of a new BountyItem.\r\n    *   @param _bountyAmount        Bounty award amount for a new BountyItem.\r\n    *   @return boolean             Returns true if function is executes successfully.\r\n    */\r\n    function createBounty(string _title, string _description, uint _bountyAmount) public payable stoppedInEmergency() returns (bool) {\r\n        bountyCount++;\r\n        var newBountyItem = BountyItem(msg.sender, _title, _description, _bountyAmount, BountyState.Open, 0);\r\n        BountyList[bountyCount] = newBountyItem;\r\n        emit CreateBounty(bountyCount, msg.sender, _title, _description, _bountyAmount, BountyState.Open, 0);\r\n        return true;\r\n    }\r\n    \r\n    /** @dev                        Creates and submits a HunterSubmission for a BountyItem to be reviewed by the Bounty Poster.\r\n    *   @param _bountyId            ID/mapping key for a BountyItem.\r\n    *   @param _body                HunterSubmission solution body of text.\r\n    *   @return boolean             Returns true if function is executes successfully.\r\n    */\r\n    function createSubmission(uint _bountyId, string _body) public \r\n        verifyBountyExists(_bountyId) \r\n        stoppedInEmergency()\r\n        returns (bool)\r\n    {\r\n        require (msg.sender != BountyList[_bountyId].bountyPoster); // Prevent Bounty Posters from submitting their own HunterSubmissions\r\n        BountyList[_bountyId].submissionCount++;\r\n        var newSubmission = HunterSubmission(msg.sender, _body, SubmissionStatus.PendingReview);\r\n        BountyList[_bountyId].submissions[BountyList[_bountyId].submissionCount] = newSubmission;\r\n        emit CreateSubmission(\r\n            _bountyId, \r\n            BountyList[_bountyId].submissionCount, \r\n            msg.sender, \r\n            _body, \r\n            SubmissionStatus.PendingReview\r\n        );\r\n        return true;\r\n    }\r\n\r\n    /** @dev                        Fetches the details of a BountyItem.\r\n    *   @return bountyPoster        Address of the BountyItem poster.\r\n    *   @return title               Title of the BountyItem.\r\n    *   @return description         Description of the BountyItem.\r\n    *   @return amount              Bounty award amount of the BountyItem.\r\n    *   @return state               Current state (BountyState type) of the BountyItem.\r\n    *   @return submissionCount     Number of HunterSubmissions for the BountyItem.\r\n    */\r\n    function fetchBounty(uint _bountyId) public view \r\n        verifyBountyExists(_bountyId) \r\n        stoppedInEmergency()\r\n        returns(\r\n            address bountyPoster, \r\n            string title, \r\n            string description, \r\n            uint amount, \r\n            BountyState state, \r\n            uint submissionCount\r\n        ) \r\n    {\r\n        return (\r\n            BountyList[_bountyId].bountyPoster,\r\n            BountyList[_bountyId].title,\r\n            BountyList[_bountyId].description,\r\n            BountyList[_bountyId].amount,\r\n            BountyList[_bountyId].state,\r\n            BountyList[_bountyId].submissionCount\r\n        );\r\n    }\r\n\r\n    /** @dev                        Fetches the details for a HunterSubmission solution of a BountyItem.\r\n    *   @param  _bountyId           ID/mapping key for a BountyItem.\r\n    *   @param  _submissionId       ID/mapping key for a HunterSubmission.\r\n    *   @return bountyId            Returns ID/mapping key of the BountyItem.\r\n    *   @return submissionId        Returns ID/mapping key of the HunterSubmission.\r\n    *   @return hunter              Returns hunter address of the HunterSubmission.\r\n    *   @return body                Returns body of text for the HunterSubmission.\r\n    *   @return status              Returns current status (SubmissionStatus type) of the HunterSubmission.\r\n    */\r\n    function fetchSubmission(uint _bountyId, uint _submissionId) public view \r\n        verifyBountyExists(_bountyId)\r\n        verifySubmissionExists(_bountyId, _submissionId) \r\n        stoppedInEmergency()\r\n        returns(\r\n            uint bountyId, \r\n            uint submissionId, \r\n            address hunter, \r\n            string body, \r\n            SubmissionStatus status\r\n        ) \r\n    {\r\n        return ( \r\n            _bountyId,\r\n            _submissionId,\r\n            BountyList[_bountyId].submissions[_submissionId].hunter, \r\n            BountyList[_bountyId].submissions[_submissionId].body, \r\n            BountyList[_bountyId].submissions[_submissionId].status\r\n        );   \r\n    }\r\n    \r\n    /** @dev                        Accepts a HunterSubmission and sets the BountyItem state to Closed.\r\n    *   @param _bountyId            ID/mapping key for a BountyItem.\r\n    *   @param _submissionId        ID/mapping key for a HunterSubmission.\r\n    */\r\n    function acceptSubmission(uint _bountyId, uint _submissionId) public payable \r\n        verifyState(_bountyId)      // Do no allow setting state on closed/paid bounties.\r\n        verifyBalance(_bountyId)    // Ensure the bounty owner has enough funds to pay the bounty amount.\r\n        verifyBountyOwner(_bountyId)// Ensure the bounty owner is only one that can call this function.\r\n        stoppedInEmergency()\r\n        returns (bool)\r\n    { \r\n        BountyList[_bountyId].submissions[_submissionId].status = SubmissionStatus.Accepted;\r\n        BountyList[_bountyId].state = BountyState.Closed;\r\n        BountyList[_bountyId].submissions[_submissionId].hunter.transfer(BountyList[_bountyId].amount);\r\n        emit AcceptSubmission(_bountyId, _submissionId);\r\n        return true;\r\n    }\r\n    \r\n    /** @dev                        Rejects a HunterSubmission.\r\n    *   @param _bountyId            ID/mapping key for a BountyItem.\r\n    *   @param _submissionId        ID/mapping key for a HunterSubmission.\r\n    *   @return boolean             Returns true if function is executes successfully.\r\n    */\r\n    function rejectSubmission(uint _bountyId, uint _submissionId) public \r\n        verifyBountyOwner(_bountyId) \r\n        verifyState(_bountyId) \r\n        stoppedInEmergency()\r\n        returns (bool)\r\n    {\r\n        BountyList[_bountyId].submissions[_submissionId].status = SubmissionStatus.Rejected;\r\n        emit RejectSubmission(_bountyId, _submissionId);\r\n        return true;\r\n    }\r\n\r\n    /** @dev                        Enables contract emergency stop / circuit breaker. Only callable by contract owner. \r\n    *   @return isStopped           Returns boolean value of isStopped if stopContract executes successfully.\r\n    */\r\n    function stopContract() public onlyAuthorized() returns (bool) {\r\n        isStopped = true;\r\n        emit StopContract(isStopped);\r\n        return isStopped;\r\n    }\r\n\r\n    /** @dev                        Enables contract emergency stop / circuit breaker. Only callable by contract owner. \r\n    *   @return isStopped           Returns boolean value of isStopped when contract owner providing the ownner status.\r\n    */\r\n    function checkStopContract() public onlyAuthorized() view returns (bool) {\r\n        return isStopped;\r\n    }\r\n\r\n    /** @dev                        Disables contract emergency stop / circuit breaker. Only callable by contract owner.\r\n    *   @return isStopped           Returns boolean value of isStopped if resumeContract executes successfully.\r\n    */\r\n    function resumeContract() public onlyAuthorized() returns (bool) {\r\n        isStopped = false;\r\n        emit ResumeContract(isStopped);\r\n        return isStopped;\r\n    }\r\n\r\n    /// @dev                        Fallback function, which accepts ether when sent to contract.\r\n    function() public payable {}\r\n    \r\n}",
  "sourcePath": "C:\\Users\\Justin\\Desktop\\CA Course Projects\\consensys_final\\contracts\\MyBounty.sol",
  "compiler": {
    "name": "solc",
    "version": "0.4.24+commit.e67f0147.Emscripten.clang"
  },
  "schemaVersion": "2.0.1",
  "updatedAt": "2018-09-13T14:48:21.775Z"
}