{
  "contractName": "MyBounty",
  "abi": [
    {
      "constant": true,
      "inputs": [],
      "name": "bountyCount",
      "outputs": [
        {
          "name": "",
          "type": "uint256"
        }
      ],
      "payable": false,
      "stateMutability": "view",
      "type": "function"
    },
    {
      "constant": true,
      "inputs": [
        {
          "name": "",
          "type": "uint256"
        }
      ],
      "name": "BountyList",
      "outputs": [
        {
          "name": "bountyPoster",
          "type": "address"
        },
        {
          "name": "title",
          "type": "string"
        },
        {
          "name": "description",
          "type": "string"
        },
        {
          "name": "amount",
          "type": "uint256"
        },
        {
          "name": "state",
          "type": "uint8"
        },
        {
          "name": "submissionCount",
          "type": "uint256"
        }
      ],
      "payable": false,
      "stateMutability": "view",
      "type": "function"
    },
    {
      "payable": true,
      "stateMutability": "payable",
      "type": "fallback"
    },
    {
      "anonymous": false,
      "inputs": [
        {
          "indexed": false,
          "name": "bountyId",
          "type": "uint256"
        }
      ],
      "name": "CreateBounty",
      "type": "event"
    },
    {
      "anonymous": false,
      "inputs": [
        {
          "indexed": false,
          "name": "bountyId",
          "type": "uint256"
        },
        {
          "indexed": false,
          "name": "submissionId",
          "type": "uint256"
        }
      ],
      "name": "CreateSubmission",
      "type": "event"
    },
    {
      "anonymous": false,
      "inputs": [
        {
          "indexed": false,
          "name": "bountyId",
          "type": "uint256"
        },
        {
          "indexed": false,
          "name": "submissionId",
          "type": "uint256"
        }
      ],
      "name": "AcceptSubmission",
      "type": "event"
    },
    {
      "anonymous": false,
      "inputs": [
        {
          "indexed": false,
          "name": "bountyId",
          "type": "uint256"
        },
        {
          "indexed": false,
          "name": "submissionId",
          "type": "uint256"
        }
      ],
      "name": "RejectSubmission",
      "type": "event"
    },
    {
      "anonymous": false,
      "inputs": [
        {
          "indexed": false,
          "name": "bountyId",
          "type": "uint256"
        }
      ],
      "name": "FetchBounty",
      "type": "event"
    },
    {
      "anonymous": false,
      "inputs": [
        {
          "indexed": false,
          "name": "bountyId",
          "type": "uint256"
        },
        {
          "indexed": false,
          "name": "submissionId",
          "type": "uint256"
        }
      ],
      "name": "FetchSubmission",
      "type": "event"
    },
    {
      "constant": false,
      "inputs": [
        {
          "name": "_title",
          "type": "string"
        },
        {
          "name": "_description",
          "type": "string"
        },
        {
          "name": "_bountyAmount",
          "type": "uint256"
        }
      ],
      "name": "createBounty",
      "outputs": [],
      "payable": false,
      "stateMutability": "nonpayable",
      "type": "function"
    },
    {
      "constant": false,
      "inputs": [
        {
          "name": "_bountyId",
          "type": "uint256"
        },
        {
          "name": "_body",
          "type": "string"
        }
      ],
      "name": "createSubmission",
      "outputs": [
        {
          "name": "bountyId",
          "type": "uint256"
        },
        {
          "name": "submissionId",
          "type": "uint256"
        }
      ],
      "payable": false,
      "stateMutability": "nonpayable",
      "type": "function"
    },
    {
      "constant": true,
      "inputs": [
        {
          "name": "_bountyId",
          "type": "uint256"
        }
      ],
      "name": "fetchBounty",
      "outputs": [
        {
          "name": "bountyPoster",
          "type": "address"
        },
        {
          "name": "title",
          "type": "string"
        },
        {
          "name": "description",
          "type": "string"
        },
        {
          "name": "amount",
          "type": "uint256"
        },
        {
          "name": "state",
          "type": "uint8"
        },
        {
          "name": "submissionCount",
          "type": "uint256"
        }
      ],
      "payable": false,
      "stateMutability": "view",
      "type": "function"
    },
    {
      "constant": true,
      "inputs": [
        {
          "name": "_bountyId",
          "type": "uint256"
        },
        {
          "name": "_submissionId",
          "type": "uint256"
        }
      ],
      "name": "fetchSubmission",
      "outputs": [
        {
          "name": "bountyId",
          "type": "uint256"
        },
        {
          "name": "submissionId",
          "type": "uint256"
        },
        {
          "name": "hunter",
          "type": "address"
        },
        {
          "name": "body",
          "type": "string"
        },
        {
          "name": "status",
          "type": "uint8"
        }
      ],
      "payable": false,
      "stateMutability": "view",
      "type": "function"
    },
    {
      "constant": false,
      "inputs": [
        {
          "name": "_bountyId",
          "type": "uint256"
        },
        {
          "name": "_submissionId",
          "type": "uint256"
        }
      ],
      "name": "acceptSubmission",
      "outputs": [],
      "payable": true,
      "stateMutability": "payable",
      "type": "function"
    },
    {
      "constant": false,
      "inputs": [
        {
          "name": "_bountyId",
          "type": "uint256"
        },
        {
          "name": "_submissionId",
          "type": "uint256"
        }
      ],
      "name": "rejectSubmission",
      "outputs": [],
      "payable": false,
      "stateMutability": "nonpayable",
      "type": "function"
    }
  ],
  "bytecode": "0x608060405234801561001057600080fd5b50611402806100206000396000f30060806040526004361061008e576000357c0100000000000000000000000000000000000000000000000000000000900463ffffffff168063172b14a4146100905780632bfa7d60146101965780633e362c961461024f57806377ca81171461027a578063a5e99c4e146103e2578063a742366814610470578063b1804ffb146105d8578063d866164d14610602575b005b34801561009c57600080fd5b506100c56004803603810190808035906020019092919080359060200190929190505050610639565b604051808681526020018581526020018473ffffffffffffffffffffffffffffffffffffffff1673ffffffffffffffffffffffffffffffffffffffff1681526020018060200183600281111561011757fe5b60ff168152602001828103825284818151815260200191508051906020019080838360005b8381101561015757808201518184015260208101905061013c565b50505050905090810190601f1680156101845780820380516001836020036101000a031916815260200191505b50965050505050505060405180910390f35b3480156101a257600080fd5b5061024d600480360381019080803590602001908201803590602001908080601f0160208091040260200160405190810160405280939291908181526020018383808284378201915050505050509192919290803590602001908201803590602001908080601f0160208091040260200160405190810160405280939291908181526020018383808284378201915050505050509192919290803590602001909291905050506107dd565b005b34801561025b57600080fd5b5061026461095e565b6040518082815260200191505060405180910390f35b34801561028657600080fd5b506102a560048036038101908080359060200190929190505050610964565b604051808773ffffffffffffffffffffffffffffffffffffffff1673ffffffffffffffffffffffffffffffffffffffff16815260200180602001806020018681526020018560018111156102f557fe5b60ff168152602001848152602001838103835288818151815260200191508051906020019080838360005b8381101561033b578082015181840152602081019050610320565b50505050905090810190601f1680156103685780820380516001836020036101000a031916815260200191505b50838103825287818151815260200191508051906020019080838360005b838110156103a1578082015181840152602081019050610386565b50505050905090810190601f1680156103ce5780820380516001836020036101000a031916815260200191505b509850505050505050505060405180910390f35b3480156103ee57600080fd5b5061045360048036038101908080359060200190929190803590602001908201803590602001908080601f0160208091040260200160405190810160405280939291908181526020018383808284378201915050505050509192919290505050610b83565b604051808381526020018281526020019250505060405180910390f35b34801561047c57600080fd5b5061049b60048036038101908080359060200190929190505050610d4d565b604051808773ffffffffffffffffffffffffffffffffffffffff1673ffffffffffffffffffffffffffffffffffffffff16815260200180602001806020018681526020018560018111156104eb57fe5b60ff168152602001848152602001838103835288818151815260200191508051906020019080838360005b83811015610531578082015181840152602081019050610516565b50505050905090810190601f16801561055e5780820380516001836020036101000a031916815260200191505b50838103825287818151815260200191508051906020019080838360005b8381101561059757808201518184015260208101905061057c565b50505050905090810190601f1680156105c45780820380516001836020036101000a031916815260200191505b509850505050505050505060405180910390f35b6106006004803603810190808035906020019092919080359060200190929190505050610ee6565b005b34801561060e57600080fd5b50610637600480360381019080803590602001909291908035906020019092919050505061114c565b005b60008060006060600086600054811115151561065457600080fd5b87876001600083815260200190815260200160002060050154821115151561067b57600080fd5b8989600160008d815260200190815260200160002060060160008c815260200190815260200160002060000160009054906101000a900473ffffffffffffffffffffffffffffffffffffffff16600160008e815260200190815260200160002060060160008d8152602001908152602001600020600101600160008f815260200190815260200160002060060160008e815260200190815260200160002060020160009054906101000a900460ff16818054600181600116156101000203166002900480601f0160208091040260200160405190810160405280929190818152602001828054600181600116156101000203166002900480156107bf5780601f10610794576101008083540402835291602001916107bf565b820191906000526020600020905b8154815290600101906020018083116107a257829003601f168201915b50505050509150975097509750975097505050509295509295909350565b6107e5611296565b600080815480929190600101919050555060c0604051908101604052803373ffffffffffffffffffffffffffffffffffffffff1681526020018581526020018481526020018381526020016000600181111561083d57fe5b81526020016000815250905080600160008054815260200190815260200160002060008201518160000160006101000a81548173ffffffffffffffffffffffffffffffffffffffff021916908373ffffffffffffffffffffffffffffffffffffffff16021790555060208201518160010190805190602001906108c19291906112ee565b5060408201518160020190805190602001906108de9291906112ee565b506060820151816003015560808201518160040160006101000a81548160ff0219169083600181111561090d57fe5b021790555060a082015181600501559050507fe19c9c03787f51b35610abf07bddca380fd009e713b06e5dfa2fa0b969c48aa66000546040518082815260200191505060405180910390a150505050565b60005481565b6000606080600080600086600054811115151561098057600080fd5b6001600089815260200190815260200160002060000160009054906101000a900473ffffffffffffffffffffffffffffffffffffffff16600160008a8152602001908152602001600020600101600160008b8152602001908152602001600020600201600160008c815260200190815260200160002060030154600160008d815260200190815260200160002060040160009054906101000a900460ff16600160008e815260200190815260200160002060050154848054600181600116156101000203166002900480601f016020809104026020016040519081016040528092919081815260200182805460018160011615610100020316600290048015610aca5780601f10610a9f57610100808354040283529160200191610aca565b820191906000526020600020905b815481529060010190602001808311610aad57829003601f168201915b50505050509450838054600181600116156101000203166002900480601f016020809104026020016040519081016040528092919081815260200182805460018160011615610100020316600290048015610b665780601f10610b3b57610100808354040283529160200191610b66565b820191906000526020600020905b815481529060010190602001808311610b4957829003601f168201915b505050505093509650965096509650965096505091939550919395565b600080610b8e61136e565b846000548111151515610ba057600080fd5b60016000878152602001908152602001600020600501600081548092919060010191905055506060604051908101604052803373ffffffffffffffffffffffffffffffffffffffff168152602001868152602001600280811115610c0057fe5b815250915081600160008881526020019081526020016000206006016000600160008a815260200190815260200160002060050154815260200190815260200160002060008201518160000160006101000a81548173ffffffffffffffffffffffffffffffffffffffff021916908373ffffffffffffffffffffffffffffffffffffffff1602179055506020820151816001019080519060200190610ca69291906112ee565b5060408201518160020160006101000a81548160ff02191690836002811115610ccb57fe5b02179055509050507f28987f9baeff4ebf5ada852c297ba2e3a9d963df4e17d9049618920269381eed866001600089815260200190815260200160002060050154604051808381526020018281526020019250505060405180910390a18560016000888152602001908152602001600020600501549350935050509250929050565b60016020528060005260406000206000915090508060000160009054906101000a900473ffffffffffffffffffffffffffffffffffffffff1690806001018054600181600116156101000203166002900480601f016020809104026020016040519081016040528092919081815260200182805460018160011615610100020316600290048015610e1f5780601f10610df457610100808354040283529160200191610e1f565b820191906000526020600020905b815481529060010190602001808311610e0257829003601f168201915b505050505090806002018054600181600116156101000203166002900480601f016020809104026020016040519081016040528092919081815260200182805460018160011615610100020316600290048015610ebd5780601f10610e9257610100808354040283529160200191610ebd565b820191906000526020600020905b815481529060010190602001808311610ea057829003601f168201915b5050505050908060030154908060040160009054906101000a900460ff16908060050154905086565b8160006001811115610ef457fe5b6001600083815260200190815260200160002060040160009054906101000a900460ff166001811115610f2357fe5b141515610f2f57600080fd5b8260016000828152602001908152602001600020600301543373ffffffffffffffffffffffffffffffffffffffff1631111515610f6b57600080fd5b836001600082815260200190815260200160002060000160009054906101000a900473ffffffffffffffffffffffffffffffffffffffff1673ffffffffffffffffffffffffffffffffffffffff163373ffffffffffffffffffffffffffffffffffffffff16141515610fdc57600080fd5b7fb50a2fef1593d2f881feee288ebce03096bc1cb73e4921deef17e1939cce307f8585604051808381526020018281526020019250505060405180910390a160016000868152602001908152602001600020600601600085815260200190815260200160002060000160009054906101000a900473ffffffffffffffffffffffffffffffffffffffff1673ffffffffffffffffffffffffffffffffffffffff166108fc60016000888152602001908152602001600020600301549081150290604051600060405180830381858888f193505050501580156110c1573d6000803e3d6000fd5b50600060016000878152602001908152602001600020600601600086815260200190815260200160002060020160006101000a81548160ff0219169083600281111561110957fe5b0217905550600180600087815260200190815260200160002060040160006101000a81548160ff0219169083600181111561114057fe5b02179055505050505050565b816001600082815260200190815260200160002060000160009054906101000a900473ffffffffffffffffffffffffffffffffffffffff1673ffffffffffffffffffffffffffffffffffffffff163373ffffffffffffffffffffffffffffffffffffffff161415156111bd57600080fd5b82600060018111156111cb57fe5b6001600083815260200190815260200160002060040160009054906101000a900460ff1660018111156111fa57fe5b14151561120657600080fd5b7f0bc2798f955e2a605cb8e256ef2eab76cff9ff6a8b6676733f7bc55562c848558484604051808381526020018281526020019250505060405180910390a16001806000868152602001908152602001600020600601600085815260200190815260200160002060020160006101000a81548160ff0219169083600281111561128b57fe5b021790555050505050565b60c060405190810160405280600073ffffffffffffffffffffffffffffffffffffffff168152602001606081526020016060815260200160008152602001600060018111156112e157fe5b8152602001600081525090565b828054600181600116156101000203166002900490600052602060002090601f016020900481019282601f1061132f57805160ff191683800117855561135d565b8280016001018555821561135d579182015b8281111561135c578251825591602001919060010190611341565b5b50905061136a91906113b1565b5090565b606060405190810160405280600073ffffffffffffffffffffffffffffffffffffffff16815260200160608152602001600060028111156113ab57fe5b81525090565b6113d391905b808211156113cf5760008160009055506001016113b7565b5090565b905600a165627a7a723058203f891089c723ed2d98896c924e7e819995279b733a2e5da5fd7fa17ca4e47f5b0029",
  "source": "pragma solidity ^0.4.17;\r\n/** @title MyBounty dApp */\r\ncontract MyBounty {\r\n    uint public bountyCount;\r\n    enum SubmissionStatus {Accepted, Rejected, PendingReview} // Bounty poster accepts or rejects solutions\r\n    enum BountyState {Open, Closed} // bounty is open when posted and closed when a solution is found\r\n    //set default state <================\r\n    struct HunterSubmission {   \r\n        address hunter; // address of bounty hunter who submitted solution\r\n        string body; // proposed solution\r\n        SubmissionStatus status;\r\n    }\r\n// add code to restrict input for ids and states\r\n    struct BountyItem {\r\n        address bountyPoster;\r\n        string title;\r\n        string description;\r\n        uint amount;\r\n        BountyState state;\r\n        uint submissionCount; // used as solution index for BountyItem's\r\n        mapping (uint => HunterSubmission) submissions;\r\n    }\r\n\r\n    mapping(uint => BountyItem) public BountyList;\r\n\r\n    event CreateBounty (uint bountyId);\r\n    //event CloseBountyState (uint bountyId, BountyState state);\r\n    event CreateSubmission (uint bountyId, uint submissionId);\r\n    event AcceptSubmission (uint bountyId, uint submissionId);\r\n    event RejectSubmission (uint bountyId, uint submissionId);\r\n    //event SetSubmissionStatus (uint bountyId, uint submissionId, SubmissionStatus status);\r\n    event FetchBounty (uint bountyId);\r\n    event FetchSubmission (uint bountyId, uint submissionId);\r\n    \r\n    modifier verifyBountyOwner (uint _bountyId) { require (msg.sender == BountyList[_bountyId].bountyPoster); _; }\r\n    modifier verifyState(uint _bountyId) { require(BountyList[_bountyId].state == BountyState.Open); _; }\r\n    modifier verifyBalance(uint _bountyId) { require(msg.sender.balance > BountyList[_bountyId].amount); _; }\r\n    modifier verifyBountyExists(uint _bountyId) { require(_bountyId <= bountyCount); _; }\r\n    modifier verifySubmissionExists(uint _bountyId, uint submissionId) { require(_bountyId <= BountyList[_bountyId].submissionCount); _; }\r\n    \r\n    /** @dev                    Creates a new BountyItem to which users can submit submissions.\r\n    * @param _title             Title of a new BountyItem.\r\n    * @param _description       Description of a new BountyItem.\r\n    * @param _bountyAmount      Bounty award amount for a new BountyItem.\r\n    */\r\n    function createBounty(string _title, string _description, uint _bountyAmount) \r\n    public \r\n    //returns(uint bountyId)\r\n    {\r\n        bountyCount++;\r\n        var newBountyItem = BountyItem(msg.sender, _title, _description, _bountyAmount, BountyState.Open, 0);\r\n        BountyList[bountyCount] = newBountyItem;\r\n        emit CreateBounty(bountyCount);\r\n        //return bountyCount; // return or event?\r\n    }\r\n    \r\n    /** @dev                    Creates and submits a solution for a BountyItem to be reviewed by the bounty owner.\r\n    * @param _bountyId          ID/mapping key for a BountyItem.\r\n    * @param _body              Submission solution body of text.\r\n    * @return bountyId          ID/mapping key of the submissions BountyItem.\r\n    * @return submissionId      ID/mapping key of the bounty items submitted solution.\r\n    */\r\n    function createSubmission(uint _bountyId, string _body) \r\n    public \r\n    verifyBountyExists(_bountyId)\r\n    returns(uint bountyId, uint submissionId) // do I need to return anything here or use event?\r\n    {\r\n        //require (msg.sender != BountyList[_bountyId].bountyPoster); //prevent bounty owner from submitting his own solution\r\n        BountyList[_bountyId].submissionCount++;\r\n        var newSubmission = HunterSubmission(msg.sender, _body, SubmissionStatus.PendingReview);\r\n        BountyList[_bountyId].submissions[BountyList[_bountyId].submissionCount] = newSubmission;\r\n        emit CreateSubmission(_bountyId, BountyList[_bountyId].submissionCount);\r\n        return (_bountyId, BountyList[_bountyId].submissionCount);\r\n    }\r\n\r\n    /** @dev                    Fetches (event logs) the details of a BountyItem.\r\n    * @param _bountyId          ID/mapping key for a BountyItem.\r\n    * @return bountyPoster      Address of the BountyItem poster.\r\n    * @return title             Title of the BountyItem.\r\n    * @return description       Description of the BountyItem.\r\n    * @return amount            Bounty award amount of the BountyItem.\r\n    * @return state             Current state (BountyState type) of the BontyItem.\r\n    * @return submissionCount   Number of submissions for the BountyItem.\r\n    */\r\n    function fetchBounty(uint _bountyId)\r\n    public constant \r\n    verifyBountyExists(_bountyId) \r\n    returns(address bountyPoster, string title, string description, uint amount, BountyState state, uint submissionCount) \r\n    {\r\n        return (//_bountyId,\r\n            BountyList[_bountyId].bountyPoster,\r\n            BountyList[_bountyId].title,\r\n            BountyList[_bountyId].description,\r\n            BountyList[_bountyId].amount,\r\n            BountyList[_bountyId].state,\r\n            BountyList[_bountyId].submissionCount);\r\n    }\r\n    \r\n//         /** @dev                    Fetches (event logs) the details of a BountyItem.\r\n//   */\r\n    \r\n//     function fetchAllBounty()\r\n//      view\r\n//     // returns(address bountyPoster, string title, string description, uint amount, BountyState state, uint submissionCount) \r\n//     returns(bList[]) \r\n//     {\r\n//         //uint memory bountyTotal = bountyCount;\r\n//         BountyItem[] memory bList;\r\n//         //= new BountyItem[bountyCount];\r\n//         for (uint i=0; i <= bountyCount; i++){\r\n//             bList.push();\r\n//         }\r\n        \r\n//         // return (//_bountyId,\r\n//         //     BountyList[_bountyId].bountyPoster,\r\n//         //     BountyList[_bountyId].title,\r\n//         //     BountyList[_bountyId].description,\r\n//         //     BountyList[_bountyId].amount,\r\n//         //     BountyList[_bountyId].state,\r\n//         //     BountyList[_bountyId].submissionCount);\r\n//         return bList;\r\n//     }\r\n    \r\n    /** @dev                    Fetches (event logs) the details for a BountyItem submissionId.\r\n    * @param _bountyId          ID/mapping key for a BountyItem.\r\n    * @return bountyId          Returns ID/mapping key of the BountyItem.\r\n    * @return submissionId      Returns ID/mapping key of the BountyItem submission.\r\n    * @return hunter            Returns hunter address key of the BountyItem submission.\r\n    * @return body              Returns body of text of the BountyItem submission.\r\n    * @return status            Returns current status (SubmissionStatus type) of the BountyItem submission.              .\r\n    */\r\n    function fetchSubmission(uint _bountyId, uint _submissionId) \r\n    public constant \r\n    verifyBountyExists(_bountyId)\r\n    verifySubmissionExists(_bountyId, _submissionId) \r\n    returns(uint bountyId, uint submissionId, address hunter, string body, SubmissionStatus status)\r\n    {\r\n        return ( //add some bounty info for this return? \r\n            _bountyId,\r\n            _submissionId,\r\n            BountyList[_bountyId].submissions[_submissionId].hunter, \r\n            BountyList[_bountyId].submissions[_submissionId].body, \r\n            BountyList[_bountyId].submissions[_submissionId].status\r\n        );   \r\n    }\r\n    \r\n    /** @dev                    Accepts a submission and closes the BountyItem state.\r\n    * @param _bountyId          ID/mapping key for a BountyItem.\r\n    * @return s                 The calculated surface.\r\n    //* @return                 Returns transaction ID.\r\n    */\r\n    function acceptSubmission(uint _bountyId, uint _submissionId)\r\n    public payable \r\n    verifyState(_bountyId) // Do no allow setting state on closed/paid bounties\r\n    verifyBalance(_bountyId) // Ensure the bounty owner has enough funds to pay the bounty amount\r\n    verifyBountyOwner(_bountyId) // Ensure owner is only one that can call this function\r\n    {\r\n        emit AcceptSubmission(_bountyId, _submissionId);\r\n        BountyList[_bountyId].submissions[_submissionId].hunter.transfer(BountyList[_bountyId].amount);\r\n        BountyList[_bountyId].submissions[_submissionId].status = SubmissionStatus.Accepted;\r\n        BountyList[_bountyId].state = BountyState.Closed;\r\n        // set all other submissions as rejected?\r\n    }\r\n    \r\n    /** @dev                    Rejects a bounty submission.\r\n    * @param _bountyId          ID/mapping key for a BountyItem.\r\n    */\r\n    function rejectSubmission(uint _bountyId, uint _submissionId)\r\n    public \r\n    verifyBountyOwner(_bountyId) \r\n    verifyState(_bountyId) \r\n    {\r\n        emit RejectSubmission(_bountyId, _submissionId);\r\n        BountyList[_bountyId].submissions[_submissionId].status = SubmissionStatus.Rejected;\r\n    }\r\n\r\n    //fetch hunterSubmissions\r\n    //fetch posterBounties\r\n    \r\n    /// @dev                    Fallback function, which accepts ether when sent to contract\r\n    function() public payable {}\r\n    \r\n}",
  "sourcePath": "C:\\Users\\Justin\\Desktop\\CA Course Projects\\truff_react\\contracts\\MyBounty - Copy.sol",
  "compiler": {
    "name": "solc",
    "version": "0.4.24+commit.e67f0147.Emscripten.clang"
  },
  "schemaVersion": "2.0.1",
  "updatedAt": "2018-08-23T17:36:51.258Z"
}