{
  "contractName": "MyBounty",
  "abi": [
    {
      "constant": true,
      "inputs": [],
      "name": "bountyCount",
      "outputs": [
        {
          "name": "",
          "type": "uint256"
        }
      ],
      "payable": false,
      "stateMutability": "view",
      "type": "function"
    },
    {
      "constant": true,
      "inputs": [
        {
          "name": "",
          "type": "uint256"
        }
      ],
      "name": "BountyList",
      "outputs": [
        {
          "name": "bountyPoster",
          "type": "address"
        },
        {
          "name": "title",
          "type": "string"
        },
        {
          "name": "description",
          "type": "string"
        },
        {
          "name": "amount",
          "type": "uint256"
        },
        {
          "name": "state",
          "type": "uint8"
        },
        {
          "name": "submissionCount",
          "type": "uint256"
        }
      ],
      "payable": false,
      "stateMutability": "view",
      "type": "function"
    },
    {
      "payable": true,
      "stateMutability": "payable",
      "type": "fallback"
    },
    {
      "anonymous": false,
      "inputs": [
        {
          "indexed": false,
          "name": "bountyId",
          "type": "uint256"
        },
        {
          "indexed": false,
          "name": "bountyPoster",
          "type": "address"
        },
        {
          "indexed": false,
          "name": "title",
          "type": "string"
        },
        {
          "indexed": false,
          "name": "description",
          "type": "string"
        },
        {
          "indexed": false,
          "name": "amount",
          "type": "uint256"
        },
        {
          "indexed": false,
          "name": "state",
          "type": "uint8"
        },
        {
          "indexed": false,
          "name": "submissionCount",
          "type": "uint256"
        }
      ],
      "name": "CreateBounty",
      "type": "event"
    },
    {
      "anonymous": false,
      "inputs": [
        {
          "indexed": false,
          "name": "bountyId",
          "type": "uint256"
        },
        {
          "indexed": false,
          "name": "submissionId",
          "type": "uint256"
        },
        {
          "indexed": false,
          "name": "hunter",
          "type": "address"
        },
        {
          "indexed": false,
          "name": "body",
          "type": "string"
        },
        {
          "indexed": false,
          "name": "status",
          "type": "uint8"
        }
      ],
      "name": "CreateSubmission",
      "type": "event"
    },
    {
      "anonymous": false,
      "inputs": [
        {
          "indexed": false,
          "name": "bountyId",
          "type": "uint256"
        },
        {
          "indexed": false,
          "name": "submissionId",
          "type": "uint256"
        }
      ],
      "name": "AcceptSubmission",
      "type": "event"
    },
    {
      "anonymous": false,
      "inputs": [
        {
          "indexed": false,
          "name": "bountyId",
          "type": "uint256"
        },
        {
          "indexed": false,
          "name": "submissionId",
          "type": "uint256"
        }
      ],
      "name": "RejectSubmission",
      "type": "event"
    },
    {
      "anonymous": false,
      "inputs": [
        {
          "indexed": false,
          "name": "bountyId",
          "type": "uint256"
        }
      ],
      "name": "FetchBounty",
      "type": "event"
    },
    {
      "anonymous": false,
      "inputs": [
        {
          "indexed": false,
          "name": "bountyId",
          "type": "uint256"
        },
        {
          "indexed": false,
          "name": "submissionId",
          "type": "uint256"
        }
      ],
      "name": "FetchSubmission",
      "type": "event"
    },
    {
      "constant": false,
      "inputs": [
        {
          "name": "_title",
          "type": "string"
        },
        {
          "name": "_description",
          "type": "string"
        },
        {
          "name": "_bountyAmount",
          "type": "uint256"
        }
      ],
      "name": "createBounty",
      "outputs": [],
      "payable": false,
      "stateMutability": "nonpayable",
      "type": "function"
    },
    {
      "constant": false,
      "inputs": [
        {
          "name": "_bountyId",
          "type": "uint256"
        },
        {
          "name": "_body",
          "type": "string"
        }
      ],
      "name": "createSubmission",
      "outputs": [],
      "payable": false,
      "stateMutability": "nonpayable",
      "type": "function"
    },
    {
      "constant": true,
      "inputs": [
        {
          "name": "_bountyId",
          "type": "uint256"
        }
      ],
      "name": "fetchBounty",
      "outputs": [
        {
          "name": "bountyPoster",
          "type": "address"
        },
        {
          "name": "title",
          "type": "string"
        },
        {
          "name": "description",
          "type": "string"
        },
        {
          "name": "amount",
          "type": "uint256"
        },
        {
          "name": "state",
          "type": "uint8"
        },
        {
          "name": "submissionCount",
          "type": "uint256"
        }
      ],
      "payable": false,
      "stateMutability": "view",
      "type": "function"
    },
    {
      "constant": true,
      "inputs": [
        {
          "name": "_bountyId",
          "type": "uint256"
        },
        {
          "name": "_submissionId",
          "type": "uint256"
        }
      ],
      "name": "fetchSubmission",
      "outputs": [
        {
          "name": "bountyId",
          "type": "uint256"
        },
        {
          "name": "submissionId",
          "type": "uint256"
        },
        {
          "name": "hunter",
          "type": "address"
        },
        {
          "name": "body",
          "type": "string"
        },
        {
          "name": "status",
          "type": "uint8"
        }
      ],
      "payable": false,
      "stateMutability": "view",
      "type": "function"
    },
    {
      "constant": false,
      "inputs": [
        {
          "name": "_bountyId",
          "type": "uint256"
        },
        {
          "name": "_submissionId",
          "type": "uint256"
        }
      ],
      "name": "acceptSubmission",
      "outputs": [],
      "payable": true,
      "stateMutability": "payable",
      "type": "function"
    },
    {
      "constant": false,
      "inputs": [
        {
          "name": "_bountyId",
          "type": "uint256"
        },
        {
          "name": "_submissionId",
          "type": "uint256"
        }
      ],
      "name": "rejectSubmission",
      "outputs": [],
      "payable": false,
      "stateMutability": "nonpayable",
      "type": "function"
    }
  ],
  "bytecode": "0x608060405234801561001057600080fd5b506115b2806100206000396000f30060806040526004361061008e576000357c0100000000000000000000000000000000000000000000000000000000900463ffffffff168063172b14a4146100905780632bfa7d60146101965780633e362c961461024f57806377ca81171461027a578063a5e99c4e146103e2578063a742366814610455578063b1804ffb146105bd578063d866164d146105e7575b005b34801561009c57600080fd5b506100c5600480360381019080803590602001909291908035906020019092919050505061061e565b604051808681526020018581526020018473ffffffffffffffffffffffffffffffffffffffff1673ffffffffffffffffffffffffffffffffffffffff1681526020018060200183600281111561011757fe5b60ff168152602001828103825284818151815260200191508051906020019080838360005b8381101561015757808201518184015260208101905061013c565b50505050905090810190601f1680156101845780820380516001836020036101000a031916815260200191505b50965050505050505060405180910390f35b3480156101a257600080fd5b5061024d600480360381019080803590602001908201803590602001908080601f0160208091040260200160405190810160405280939291908181526020018383808284378201915050505050509192919290803590602001908201803590602001908080601f0160208091040260200160405190810160405280939291908181526020018383808284378201915050505050509192919290803590602001909291905050506107c2565b005b34801561025b57600080fd5b50610264610a78565b6040518082815260200191505060405180910390f35b34801561028657600080fd5b506102a560048036038101908080359060200190929190505050610a7e565b604051808773ffffffffffffffffffffffffffffffffffffffff1673ffffffffffffffffffffffffffffffffffffffff16815260200180602001806020018681526020018560018111156102f557fe5b60ff168152602001848152602001838103835288818151815260200191508051906020019080838360005b8381101561033b578082015181840152602081019050610320565b50505050905090810190601f1680156103685780820380516001836020036101000a031916815260200191505b50838103825287818151815260200191508051906020019080838360005b838110156103a1578082015181840152602081019050610386565b50505050905090810190601f1680156103ce5780820380516001836020036101000a031916815260200191505b509850505050505050505060405180910390f35b3480156103ee57600080fd5b5061045360048036038101908080359060200190929190803590602001908201803590602001908080601f0160208091040260200160405190810160405280939291908181526020018383808284378201915050505050509192919290505050610c9d565b005b34801561046157600080fd5b5061048060048036038101908080359060200190929190505050610efd565b604051808773ffffffffffffffffffffffffffffffffffffffff1673ffffffffffffffffffffffffffffffffffffffff16815260200180602001806020018681526020018560018111156104d057fe5b60ff168152602001848152602001838103835288818151815260200191508051906020019080838360005b838110156105165780820151818401526020810190506104fb565b50505050905090810190601f1680156105435780820380516001836020036101000a031916815260200191505b50838103825287818151815260200191508051906020019080838360005b8381101561057c578082015181840152602081019050610561565b50505050905090810190601f1680156105a95780820380516001836020036101000a031916815260200191505b509850505050505050505060405180910390f35b6105e56004803603810190808035906020019092919080359060200190929190505050611096565b005b3480156105f357600080fd5b5061061c60048036038101908080359060200190929190803590602001909291905050506112fc565b005b60008060006060600086600054811115151561063957600080fd5b87876001600083815260200190815260200160002060050154821115151561066057600080fd5b8989600160008d815260200190815260200160002060060160008c815260200190815260200160002060000160009054906101000a900473ffffffffffffffffffffffffffffffffffffffff16600160008e815260200190815260200160002060060160008d8152602001908152602001600020600101600160008f815260200190815260200160002060060160008e815260200190815260200160002060020160009054906101000a900460ff16818054600181600116156101000203166002900480601f0160208091040260200160405190810160405280929190818152602001828054600181600116156101000203166002900480156107a45780601f10610779576101008083540402835291602001916107a4565b820191906000526020600020905b81548152906001019060200180831161078757829003601f168201915b50505050509150975097509750975097505050509295509295909350565b6107ca611446565b600080815480929190600101919050555060c0604051908101604052803373ffffffffffffffffffffffffffffffffffffffff1681526020018581526020018481526020018381526020016000600181111561082257fe5b81526020016000815250905080600160008054815260200190815260200160002060008201518160000160006101000a81548173ffffffffffffffffffffffffffffffffffffffff021916908373ffffffffffffffffffffffffffffffffffffffff16021790555060208201518160010190805190602001906108a692919061149e565b5060408201518160020190805190602001906108c392919061149e565b506060820151816003015560808201518160040160006101000a81548160ff021916908360018111156108f257fe5b021790555060a082015181600501559050507f9417a56f1a7c2b5316ba15b488545cc26266647390dc387151545bcfed45aa1c60005433868686600080604051808881526020018773ffffffffffffffffffffffffffffffffffffffff1673ffffffffffffffffffffffffffffffffffffffff168152602001806020018060200186815260200185600181111561098557fe5b60ff168152602001848152602001838103835288818151815260200191508051906020019080838360005b838110156109cb5780820151818401526020810190506109b0565b50505050905090810190601f1680156109f85780820380516001836020036101000a031916815260200191505b50838103825287818151815260200191508051906020019080838360005b83811015610a31578082015181840152602081019050610a16565b50505050905090810190601f168015610a5e5780820380516001836020036101000a031916815260200191505b50995050505050505050505060405180910390a150505050565b60005481565b60006060806000806000866000548111151515610a9a57600080fd5b6001600089815260200190815260200160002060000160009054906101000a900473ffffffffffffffffffffffffffffffffffffffff16600160008a8152602001908152602001600020600101600160008b8152602001908152602001600020600201600160008c815260200190815260200160002060030154600160008d815260200190815260200160002060040160009054906101000a900460ff16600160008e815260200190815260200160002060050154848054600181600116156101000203166002900480601f016020809104026020016040519081016040528092919081815260200182805460018160011615610100020316600290048015610be45780601f10610bb957610100808354040283529160200191610be4565b820191906000526020600020905b815481529060010190602001808311610bc757829003601f168201915b50505050509450838054600181600116156101000203166002900480601f016020809104026020016040519081016040528092919081815260200182805460018160011615610100020316600290048015610c805780601f10610c5557610100808354040283529160200191610c80565b820191906000526020600020905b815481529060010190602001808311610c6357829003601f168201915b505050505093509650965096509650965096505091939550919395565b610ca561151e565b826000548111151515610cb757600080fd5b60016000858152602001908152602001600020600501600081548092919060010191905055506060604051908101604052803373ffffffffffffffffffffffffffffffffffffffff168152602001848152602001600280811115610d1757fe5b8152509150816001600086815260200190815260200160002060060160006001600088815260200190815260200160002060050154815260200190815260200160002060008201518160000160006101000a81548173ffffffffffffffffffffffffffffffffffffffff021916908373ffffffffffffffffffffffffffffffffffffffff1602179055506020820151816001019080519060200190610dbd92919061149e565b5060408201518160020160006101000a81548160ff02191690836002811115610de257fe5b02179055509050507fd01e6e2c18060d3a9fb9c2975efe5fcd4b4c5f49f385aed74cd3b81be5ae09b184600160008781526020019081526020016000206005015433866002604051808681526020018581526020018473ffffffffffffffffffffffffffffffffffffffff1673ffffffffffffffffffffffffffffffffffffffff16815260200180602001836002811115610e7957fe5b60ff168152602001828103825284818151815260200191508051906020019080838360005b83811015610eb9578082015181840152602081019050610e9e565b50505050905090810190601f168015610ee65780820380516001836020036101000a031916815260200191505b50965050505050505060405180910390a150505050565b60016020528060005260406000206000915090508060000160009054906101000a900473ffffffffffffffffffffffffffffffffffffffff1690806001018054600181600116156101000203166002900480601f016020809104026020016040519081016040528092919081815260200182805460018160011615610100020316600290048015610fcf5780601f10610fa457610100808354040283529160200191610fcf565b820191906000526020600020905b815481529060010190602001808311610fb257829003601f168201915b505050505090806002018054600181600116156101000203166002900480601f01602080910402602001604051908101604052809291908181526020018280546001816001161561010002031660029004801561106d5780601f106110425761010080835404028352916020019161106d565b820191906000526020600020905b81548152906001019060200180831161105057829003601f168201915b5050505050908060030154908060040160009054906101000a900460ff16908060050154905086565b81600060018111156110a457fe5b6001600083815260200190815260200160002060040160009054906101000a900460ff1660018111156110d357fe5b1415156110df57600080fd5b8260016000828152602001908152602001600020600301543373ffffffffffffffffffffffffffffffffffffffff163111151561111b57600080fd5b836001600082815260200190815260200160002060000160009054906101000a900473ffffffffffffffffffffffffffffffffffffffff1673ffffffffffffffffffffffffffffffffffffffff163373ffffffffffffffffffffffffffffffffffffffff1614151561118c57600080fd5b7fb50a2fef1593d2f881feee288ebce03096bc1cb73e4921deef17e1939cce307f8585604051808381526020018281526020019250505060405180910390a160016000868152602001908152602001600020600601600085815260200190815260200160002060000160009054906101000a900473ffffffffffffffffffffffffffffffffffffffff1673ffffffffffffffffffffffffffffffffffffffff166108fc60016000888152602001908152602001600020600301549081150290604051600060405180830381858888f19350505050158015611271573d6000803e3d6000fd5b50600060016000878152602001908152602001600020600601600086815260200190815260200160002060020160006101000a81548160ff021916908360028111156112b957fe5b0217905550600180600087815260200190815260200160002060040160006101000a81548160ff021916908360018111156112f057fe5b02179055505050505050565b816001600082815260200190815260200160002060000160009054906101000a900473ffffffffffffffffffffffffffffffffffffffff1673ffffffffffffffffffffffffffffffffffffffff163373ffffffffffffffffffffffffffffffffffffffff1614151561136d57600080fd5b826000600181111561137b57fe5b6001600083815260200190815260200160002060040160009054906101000a900460ff1660018111156113aa57fe5b1415156113b657600080fd5b7f0bc2798f955e2a605cb8e256ef2eab76cff9ff6a8b6676733f7bc55562c848558484604051808381526020018281526020019250505060405180910390a16001806000868152602001908152602001600020600601600085815260200190815260200160002060020160006101000a81548160ff0219169083600281111561143b57fe5b021790555050505050565b60c060405190810160405280600073ffffffffffffffffffffffffffffffffffffffff1681526020016060815260200160608152602001600081526020016000600181111561149157fe5b8152602001600081525090565b828054600181600116156101000203166002900490600052602060002090601f016020900481019282601f106114df57805160ff191683800117855561150d565b8280016001018555821561150d579182015b8281111561150c5782518255916020019190600101906114f1565b5b50905061151a9190611561565b5090565b606060405190810160405280600073ffffffffffffffffffffffffffffffffffffffff168152602001606081526020016000600281111561155b57fe5b81525090565b61158391905b8082111561157f576000816000905550600101611567565b5090565b905600a165627a7a72305820e9dcb1ac42da6ac412f606906ceda95d26bae2c8b9a7d885a488afb121ce86fd0029",
  "source": "pragma solidity ^0.4.17;\r\n/** @title MyBounty dApp */\r\ncontract MyBounty {\r\n    \r\n    uint public bountyCount;\r\n    enum SubmissionStatus {Accepted, Rejected, PendingReview}   // Bounty poster accepts or rejects solutions\r\n    enum BountyState {Open, Closed}                             // open when posted, closed when a solution is accepted\r\n\r\n    struct HunterSubmission {   \r\n        address hunter;                                         // address of bounty hunter who submitted solution\r\n        string body;                                            // proposed solution\r\n        SubmissionStatus status;\r\n    }\r\n\r\n    struct BountyItem {\r\n        address bountyPoster;\r\n        string title;\r\n        string description;\r\n        uint amount;\r\n        BountyState state;\r\n        uint submissionCount;                                   // used as solution index for BountyItem's\r\n        mapping (uint => HunterSubmission) submissions;\r\n    }\r\n\r\n    mapping(uint => BountyItem) public BountyList;\r\n\r\n    event CreateBounty (uint bountyId, address bountyPoster, string title, string description, uint amount, BountyState state, uint submissionCount);\r\n    event CreateSubmission (uint bountyId, uint submissionId, address hunter, string body, SubmissionStatus status);\r\n    event AcceptSubmission (uint bountyId, uint submissionId);\r\n    event RejectSubmission (uint bountyId, uint submissionId);\r\n    event FetchBounty (uint bountyId);\r\n    event FetchSubmission (uint bountyId, uint submissionId);\r\n    \r\n    modifier verifyBountyOwner (uint _bountyId) { require (msg.sender == BountyList[_bountyId].bountyPoster); _; }\r\n    modifier verifyState(uint _bountyId) { require(BountyList[_bountyId].state == BountyState.Open); _; }\r\n    modifier verifyBalance(uint _bountyId) { require(msg.sender.balance > BountyList[_bountyId].amount); _; }\r\n    modifier verifyBountyExists(uint _bountyId) { require(_bountyId <= bountyCount); _; }\r\n    modifier verifySubmissionExists(uint _bountyId, uint submissionId) { require(_bountyId <= BountyList[_bountyId].submissionCount); _; }\r\n    \r\n    /** @dev                        Creates a new BountyItem to which users can submit submissions.\r\n    *   @param _title               Title of a new BountyItem.\r\n    *   @param _description         Description of a new BountyItem.\r\n    *   @param _bountyAmount        Bounty award amount for a new BountyItem.\r\n    */\r\n    function createBounty(string _title, string _description, uint _bountyAmount) \r\n    public \r\n    //returns(uint bountyId)\r\n    {\r\n        bountyCount++;\r\n        var newBountyItem = BountyItem(msg.sender, _title, _description, _bountyAmount, BountyState.Open, 0);\r\n        BountyList[bountyCount] = newBountyItem;\r\n        emit CreateBounty(bountyCount, msg.sender, _title, _description, _bountyAmount, BountyState.Open, 0);\r\n        //return bountyCount; // return or event?\r\n    }\r\n    \r\n    /** @dev                        Creates and submits a solution for a BountyItem to be reviewed by the bounty owner.\r\n    *   @param _bountyId            ID/mapping key for a BountyItem.\r\n    *   @param _body                Submission solution body of text.\r\n    */\r\n    function createSubmission(uint _bountyId, string _body) \r\n    public \r\n    verifyBountyExists(_bountyId)\r\n    //returns(uint bountyId, uint submissionId) // do I need to return anything here or use event?\r\n    {\r\n        //require (msg.sender != BountyList[_bountyId].bountyPoster); //prevent bounty owner from submitting his own solution\r\n        BountyList[_bountyId].submissionCount++;\r\n        var newSubmission = HunterSubmission(msg.sender, _body, SubmissionStatus.PendingReview);\r\n        BountyList[_bountyId].submissions[BountyList[_bountyId].submissionCount] = newSubmission;\r\n        emit CreateSubmission(_bountyId, BountyList[_bountyId].submissionCount, msg.sender, _body, SubmissionStatus.PendingReview);\r\n        //adddress hunter, string body, SubmissionStatus status\r\n        //return (_bountyId, BountyList[_bountyId].submissionCount);\r\n    }\r\n\r\n\r\n    /** @dev                        Fetches (event logs) the details of a BountyItem.\r\n    *   @return bountyPoster        Address of the BountyItem poster.\r\n    *   @return title               Title of the BountyItem.\r\n    *   @return description         Description of the BountyItem.\r\n    *   @return amount              Bounty award amount of the BountyItem.\r\n    *   @return state               Current state (BountyState type) of the BontyItem.\r\n    *   @return submissionCount     Number of submissions for the BountyItem.\r\n    */\r\n    function fetchBounty(uint _bountyId)\r\n    public constant \r\n    verifyBountyExists(_bountyId) \r\n    returns(address bountyPoster, string title, string description, uint amount, BountyState state, uint submissionCount) \r\n    {\r\n        return (\r\n            BountyList[_bountyId].bountyPoster,\r\n            BountyList[_bountyId].title,\r\n            BountyList[_bountyId].description,\r\n            BountyList[_bountyId].amount,\r\n            BountyList[_bountyId].state,\r\n            BountyList[_bountyId].submissionCount);\r\n    }\r\n\r\n    \r\n    /** @dev                        Fetches (event logs) the details for a BountyItem submissionId.\r\n    *   @param _bountyId            ID/mapping key for a BountyItem.\r\n    *   @return bountyId            Returns ID/mapping key of the BountyItem.\r\n    *   @return submissionId        Returns ID/mapping key of the BountyItem submission.\r\n    *   @return hunter              Returns hunter address key of the BountyItem submission.\r\n    *   @return body                Returns body of text of the BountyItem submission.\r\n    *   @return status              Returns current status (SubmissionStatus type) of the BountyItem submission.              .\r\n    */\r\n    function fetchSubmission(uint _bountyId, uint _submissionId) \r\n    public constant \r\n    verifyBountyExists(_bountyId)\r\n    verifySubmissionExists(_bountyId, _submissionId) \r\n    returns(uint bountyId, uint submissionId, address hunter, string body, SubmissionStatus status)\r\n    {\r\n        return ( //add some bounty info for this return? \r\n            _bountyId,\r\n            _submissionId,\r\n            BountyList[_bountyId].submissions[_submissionId].hunter, \r\n            BountyList[_bountyId].submissions[_submissionId].body, \r\n            BountyList[_bountyId].submissions[_submissionId].status\r\n        );   \r\n    }\r\n    \r\n    /** @dev                        Accepts a submission and closes the BountyItem state.\r\n    *   @param _bountyId            ID/mapping key for a BountyItem.\r\n    *   @return s                   The calculated surface.\r\n    */\r\n    function acceptSubmission(uint _bountyId, uint _submissionId)\r\n    public payable \r\n    verifyState(_bountyId) // Do no allow setting state on closed/paid bounties\r\n    verifyBalance(_bountyId) // Ensure the bounty owner has enough funds to pay the bounty amount\r\n    verifyBountyOwner(_bountyId) // Ensure owner is only one that can call this function\r\n    {\r\n        emit AcceptSubmission(_bountyId, _submissionId);\r\n        BountyList[_bountyId].submissions[_submissionId].hunter.transfer(BountyList[_bountyId].amount);\r\n        BountyList[_bountyId].submissions[_submissionId].status = SubmissionStatus.Accepted;\r\n        BountyList[_bountyId].state = BountyState.Closed;\r\n        // set all other submissions as rejected?\r\n    }\r\n    \r\n    /** @dev                        Rejects a bounty submission.\r\n    *   @param _bountyId            ID/mapping key for a BountyItem.\r\n    */\r\n    function rejectSubmission(uint _bountyId, uint _submissionId)\r\n    public \r\n    verifyBountyOwner(_bountyId) \r\n    verifyState(_bountyId) \r\n    {\r\n        emit RejectSubmission(_bountyId, _submissionId);\r\n        BountyList[_bountyId].submissions[_submissionId].status = SubmissionStatus.Rejected;\r\n    }\r\n\r\n    /// @dev                        Fallback function, which accepts ether when sent to contract\r\n    function() public payable {}\r\n    \r\n}",
  "sourcePath": "C:\\Users\\Justin\\Desktop\\CA Course Projects\\consensys_final\\contracts\\MyBounty.sol",
  "compiler": {
    "name": "solc",
    "version": "0.4.24+commit.e67f0147.Emscripten.clang"
  },
  "schemaVersion": "2.0.1",
  "updatedAt": "2018-08-24T20:51:49.126Z"
}